{
  "contractName": "ProxySupplyChain",
  "abi": [
    {
      "inputs": [
        {
          "internalType": "contract SupplyChain",
          "name": "_supplyChain",
          "type": "address"
        }
      ],
      "payable": false,
      "stateMutability": "nonpayable",
      "type": "constructor"
    },
    {
      "constant": false,
      "inputs": [
        {
          "internalType": "uint256",
          "name": "sku",
          "type": "uint256"
        }
      ],
      "name": "shipItem",
      "outputs": [
        {
          "internalType": "bool",
          "name": "",
          "type": "bool"
        }
      ],
      "payable": false,
      "stateMutability": "nonpayable",
      "type": "function"
    },
    {
      "constant": false,
      "inputs": [
        {
          "internalType": "uint256",
          "name": "sku",
          "type": "uint256"
        }
      ],
      "name": "receiveItem",
      "outputs": [
        {
          "internalType": "bool",
          "name": "",
          "type": "bool"
        }
      ],
      "payable": false,
      "stateMutability": "nonpayable",
      "type": "function"
    }
  ],
  "bytecode": "0x608060405234801561001057600080fd5b506040516104bf3803806104bf8339818101604052602081101561003357600080fd5b8101908080519060200190929190505050336000806101000a81548173ffffffffffffffffffffffffffffffffffffffff021916908373ffffffffffffffffffffffffffffffffffffffff16021790555080600160006101000a81548173ffffffffffffffffffffffffffffffffffffffff021916908373ffffffffffffffffffffffffffffffffffffffff160217905550506103ea806100d56000396000f3fe608060405234801561001057600080fd5b50600436106100365760003560e01c8063a26be9991461003b578063f61c899a14610081575b600080fd5b6100676004803603602081101561005157600080fd5b81019080803590602001909291905050506100c7565b604051808215151515815260200191505060405180910390f35b6100ad6004803603602081101561009757600080fd5b810190808035906020019092919050505061023e565b604051808215151515815260200191505060405180910390f35b600080600160009054906101000a900473ffffffffffffffffffffffffffffffffffffffff1673ffffffffffffffffffffffffffffffffffffffff166000604051602401808260ff1681526020019150506040516020818303038152906040527fa26be999000000000000000000000000000000000000000000000000000000007bffffffffffffffffffffffffffffffffffffffffffffffffffffffff19166020820180517bffffffffffffffffffffffffffffffffffffffffffffffffffffffff83818316178352505050506040518082805190602001908083835b602083106101c857805182526020820191506020810190506020830392506101a5565b6001836020036101000a0380198251168184511680821785525050505050509050019150506000604051808303816000865af19150503d806000811461022a576040519150601f19603f3d011682016040523d82523d6000602084013e61022f565b606091505b50508091505080915050919050565b600080600160009054906101000a900473ffffffffffffffffffffffffffffffffffffffff1673ffffffffffffffffffffffffffffffffffffffff166000604051602401808260ff1681526020019150506040516020818303038152906040527ff61c899a000000000000000000000000000000000000000000000000000000007bffffffffffffffffffffffffffffffffffffffffffffffffffffffff19166020820180517bffffffffffffffffffffffffffffffffffffffffffffffffffffffff83818316178352505050506040518082805190602001908083835b6020831061033f578051825260208201915060208101905060208303925061031c565b6001836020036101000a0380198251168184511680821785525050505050509050019150506000604051808303816000865af19150503d80600081146103a1576040519150601f19603f3d011682016040523d82523d6000602084013e6103a6565b606091505b5050809150508091505091905056fea265627a7a7231582088567fc4235e1d0177140273eae466c0674c292053086f86567165431324ecc464736f6c63430005100032",
  "source": "/*\r\n    This exercise has been updated to use Solidity version 0.5\r\n    Breaking changes from 0.4 to 0.5 can be found here: \r\n    https://solidity.readthedocs.io/en/v0.5.0/050-breaking-changes.html\r\n*/\r\nimport \"./SupplyChain.sol\";\r\n\r\npragma solidity ^0.5.0;\r\n\r\ncontract ProxySupplyChain {\r\n\r\n  /* set owner */\r\n  address owner;\r\n\r\n  /* SupplyChain contract */\r\n  SupplyChain supplyChain;\r\n\r\n  constructor(SupplyChain _supplyChain) public {\r\n    /* Here, set the owner as the person who instantiated the contract\r\n       and set your skuCount to 0. */\r\n    owner = msg.sender;\r\n    supplyChain = _supplyChain;\r\n  }\r\n\r\n/* Call Function shipItem from supplyChain contract and return true/false */\r\n  function shipItem(uint sku) public returns (bool) \r\n  {\r\n    bool r;\r\n\r\n    // Try to ship with current account\r\n    (r, ) = address(supplyChain).call(abi.encodeWithSignature(\"shipItem(uint256)\",0));\r\n\r\n    return r;\r\n}\r\n\r\n/* Call Function receiveItem from supplyChain contract and return true/false */\r\n  function receiveItem(uint sku) public returns (bool) \r\n  {\r\n    bool r;\r\n\r\n    // Try to ship with current account\r\n    (r, ) = address(supplyChain).call(abi.encodeWithSignature(\"receiveItem(uint256)\",0));\r\n\r\n    return r;\r\n  }\r\n\r\n\r\n}\r\n",
  "sourcePath": "C:/Users/arnou/OneDrive - Infent/Infent/Blockchain/supply-chain-exercise-arnoudcommandeur/contracts/ProxySupplyChain.sol",
  "compiler": {
    "name": "solc",
    "version": "0.5.16+commit.9c3226ce.Emscripten.clang"
  },
  "schemaVersion": "3.2.5",
  "updatedAt": "2020-10-11T20:23:02.106Z",
  "devdoc": {
    "methods": {}
  },
  "userdoc": {
    "methods": {}
  }
}