{
  "contractName": "SupplyChain",
  "abi": [
    {
      "inputs": [],
      "payable": false,
      "stateMutability": "nonpayable",
      "type": "constructor"
    },
    {
      "anonymous": false,
      "inputs": [
        {
          "indexed": false,
          "internalType": "uint256",
          "name": "sku",
          "type": "uint256"
        }
      ],
      "name": "LogForSale",
      "type": "event"
    },
    {
      "anonymous": false,
      "inputs": [
        {
          "indexed": false,
          "internalType": "uint256",
          "name": "sku",
          "type": "uint256"
        }
      ],
      "name": "LogReceived",
      "type": "event"
    },
    {
      "anonymous": false,
      "inputs": [
        {
          "indexed": false,
          "internalType": "uint256",
          "name": "sku",
          "type": "uint256"
        }
      ],
      "name": "LogShipped",
      "type": "event"
    },
    {
      "anonymous": false,
      "inputs": [
        {
          "indexed": false,
          "internalType": "uint256",
          "name": "sku",
          "type": "uint256"
        }
      ],
      "name": "LogSold",
      "type": "event"
    },
    {
      "constant": true,
      "inputs": [
        {
          "internalType": "uint256",
          "name": "",
          "type": "uint256"
        }
      ],
      "name": "items",
      "outputs": [
        {
          "internalType": "string",
          "name": "name",
          "type": "string"
        },
        {
          "internalType": "uint256",
          "name": "sku",
          "type": "uint256"
        },
        {
          "internalType": "uint256",
          "name": "price",
          "type": "uint256"
        },
        {
          "internalType": "enum SupplyChain.State",
          "name": "state",
          "type": "uint8"
        },
        {
          "internalType": "address payable",
          "name": "seller",
          "type": "address"
        },
        {
          "internalType": "address payable",
          "name": "buyer",
          "type": "address"
        }
      ],
      "payable": false,
      "stateMutability": "view",
      "type": "function"
    },
    {
      "constant": false,
      "inputs": [
        {
          "internalType": "string",
          "name": "_name",
          "type": "string"
        },
        {
          "internalType": "uint256",
          "name": "_price",
          "type": "uint256"
        }
      ],
      "name": "addItem",
      "outputs": [
        {
          "internalType": "bool",
          "name": "",
          "type": "bool"
        }
      ],
      "payable": false,
      "stateMutability": "nonpayable",
      "type": "function"
    },
    {
      "constant": false,
      "inputs": [
        {
          "internalType": "uint256",
          "name": "sku",
          "type": "uint256"
        }
      ],
      "name": "buyItem",
      "outputs": [],
      "payable": true,
      "stateMutability": "payable",
      "type": "function"
    },
    {
      "constant": false,
      "inputs": [
        {
          "internalType": "uint256",
          "name": "sku",
          "type": "uint256"
        }
      ],
      "name": "shipItem",
      "outputs": [],
      "payable": false,
      "stateMutability": "nonpayable",
      "type": "function"
    },
    {
      "constant": false,
      "inputs": [
        {
          "internalType": "uint256",
          "name": "sku",
          "type": "uint256"
        }
      ],
      "name": "receiveItem",
      "outputs": [],
      "payable": false,
      "stateMutability": "nonpayable",
      "type": "function"
    },
    {
      "constant": false,
      "inputs": [
        {
          "internalType": "address",
          "name": "buyer",
          "type": "address"
        },
        {
          "internalType": "uint256",
          "name": "sku",
          "type": "uint256"
        }
      ],
      "name": "receiveItem",
      "outputs": [],
      "payable": false,
      "stateMutability": "nonpayable",
      "type": "function"
    },
    {
      "constant": true,
      "inputs": [
        {
          "internalType": "uint256",
          "name": "_sku",
          "type": "uint256"
        }
      ],
      "name": "fetchItem",
      "outputs": [
        {
          "internalType": "string",
          "name": "name",
          "type": "string"
        },
        {
          "internalType": "uint256",
          "name": "sku",
          "type": "uint256"
        },
        {
          "internalType": "uint256",
          "name": "price",
          "type": "uint256"
        },
        {
          "internalType": "uint256",
          "name": "state",
          "type": "uint256"
        },
        {
          "internalType": "address",
          "name": "seller",
          "type": "address"
        },
        {
          "internalType": "address",
          "name": "buyer",
          "type": "address"
        }
      ],
      "payable": false,
      "stateMutability": "view",
      "type": "function"
    }
  ],
  "bytecode": "0x608060405234801561001057600080fd5b50336000806101000a81548173ffffffffffffffffffffffffffffffffffffffff021916908373ffffffffffffffffffffffffffffffffffffffff16021790555060006001819055506111a1806100686000396000f3fe6080604052600436106100705760003560e01c8063b5a64c8b1161004e578063b5a64c8b146102c9578063bfb231d214610324578063e7fb74c714610461578063f61c899a1461048f57610070565b806362d6bbdf14610075578063a26be9991461015f578063ad4b9cfb1461019a575b600080fd5b34801561008157600080fd5b506101456004803603604081101561009857600080fd5b81019080803590602001906401000000008111156100b557600080fd5b8201836020820111156100c757600080fd5b803590602001918460018302840111640100000000831117156100e957600080fd5b91908080601f016020809104026020016040519081016040528093929190818152602001838380828437600081840152601f19601f820116905080830192505050505050509192919290803590602001909291905050506104ca565b604051808215151515815260200191505060405180910390f35b34801561016b57600080fd5b506101986004803603602081101561018257600080fd5b8101908080359060200190929190505050610682565b005b3480156101a657600080fd5b506101d3600480360360208110156101bd57600080fd5b8101908080359060200190929190505050610807565b60405180806020018781526020018681526020018581526020018473ffffffffffffffffffffffffffffffffffffffff1673ffffffffffffffffffffffffffffffffffffffff1681526020018373ffffffffffffffffffffffffffffffffffffffff1673ffffffffffffffffffffffffffffffffffffffff168152602001828103825288818151815260200191508051906020019080838360005b8381101561028957808201518184015260208101905061026e565b50505050905090810190601f1680156102b65780820380516001836020036101000a031916815260200191505b5097505050505050505060405180910390f35b3480156102d557600080fd5b50610322600480360360408110156102ec57600080fd5b81019080803573ffffffffffffffffffffffffffffffffffffffff169060200190929190803590602001909291905050506109b2565b005b34801561033057600080fd5b5061035d6004803603602081101561034757600080fd5b8101908080359060200190929190505050610ba1565b604051808060200187815260200186815260200185600381111561037d57fe5b60ff1681526020018473ffffffffffffffffffffffffffffffffffffffff1673ffffffffffffffffffffffffffffffffffffffff1681526020018373ffffffffffffffffffffffffffffffffffffffff1673ffffffffffffffffffffffffffffffffffffffff168152602001828103825288818151815260200191508051906020019080838360005b83811015610421578082015181840152602081019050610406565b50505050905090810190601f16801561044e5780820380516001836020036101000a031916815260200191505b5097505050505050505060405180910390f35b61048d6004803603602081101561047757600080fd5b8101908080359060200190929190505050610cc2565b005b34801561049b57600080fd5b506104c8600480360360208110156104b257600080fd5b810190808035906020019092919050505061104f565b005b60007f4627c48065af2a9648cbecdd4b9da340c00e501243cd49a8a71c30c987e8b7616001546040518082815260200191505060405180910390a16040518060c0016040528084815260200160015481526020018381526020016000600381111561053157fe5b81526020013373ffffffffffffffffffffffffffffffffffffffff168152602001600073ffffffffffffffffffffffffffffffffffffffff16815250600260006001548152602001908152602001600020600082015181600001908051906020019061059e9291906110c7565b50602082015181600101556040820151816002015560608201518160030160006101000a81548160ff021916908360038111156105d757fe5b021790555060808201518160030160016101000a81548173ffffffffffffffffffffffffffffffffffffffff021916908373ffffffffffffffffffffffffffffffffffffffff16021790555060a08201518160040160006101000a81548173ffffffffffffffffffffffffffffffffffffffff021916908373ffffffffffffffffffffffffffffffffffffffff16021790555090505060018054016001819055506001905092915050565b806002600381111561069057fe5b6002600083815260200190815260200160002060030160009054906101000a900460ff1660038111156106bf57fe5b14610732576040517f08c379a00000000000000000000000000000000000000000000000000000000081526004018080602001828103825260108152602001807f4974656d206e6f7420736869707065640000000000000000000000000000000081525060200191505060405180910390fd5b60006002600084815260200190815260200160002090508060040160009054906101000a900473ffffffffffffffffffffffffffffffffffffffff1673ffffffffffffffffffffffffffffffffffffffff163373ffffffffffffffffffffffffffffffffffffffff16146107a557600080fd5b60038160030160006101000a81548160ff021916908360038111156107c657fe5b02179055507f5a98827d06afe0e04647b3aed26f1ffb77171ad9ac41603c4ef623a6638798c1836040518082815260200191505060405180910390a1505050565b60606000806000806000600260008881526020019081526020016000206000018054600181600116156101000203166002900480601f0160208091040260200160405190810160405280929190818152602001828054600181600116156101000203166002900480156108bb5780601f10610890576101008083540402835291602001916108bb565b820191906000526020600020905b81548152906001019060200180831161089e57829003601f168201915b5050505050955060026000888152602001908152602001600020600101549450600260008881526020019081526020016000206002015493506002600088815260200190815260200160002060030160009054906101000a900460ff16600381111561092357fe5b92506002600088815260200190815260200160002060030160019054906101000a900473ffffffffffffffffffffffffffffffffffffffff1691506002600088815260200190815260200160002060040160009054906101000a900473ffffffffffffffffffffffffffffffffffffffff16905085858585858595509550955095509550955091939550919395565b80600260038111156109c057fe5b6002600083815260200190815260200160002060030160009054906101000a900460ff1660038111156109ef57fe5b14610a62576040517f08c379a00000000000000000000000000000000000000000000000000000000081526004018080602001828103825260108152602001807f4974656d206e6f7420736869707065640000000000000000000000000000000081525060200191505060405180910390fd5b60006002600084815260200190815260200160002090508060040160009054906101000a900473ffffffffffffffffffffffffffffffffffffffff1673ffffffffffffffffffffffffffffffffffffffff168473ffffffffffffffffffffffffffffffffffffffff1614610b3e576040517f08c379a00000000000000000000000000000000000000000000000000000000081526004018080602001828103825260198152602001807f5265636569766572206973206e6f74207468652062757965720000000000000081525060200191505060405180910390fd5b60038160030160006101000a81548160ff02191690836003811115610b5f57fe5b02179055507f5a98827d06afe0e04647b3aed26f1ffb77171ad9ac41603c4ef623a6638798c1836040518082815260200191505060405180910390a150505050565b6002602052806000526040600020600091509050806000018054600181600116156101000203166002900480601f016020809104026020016040519081016040528092919081815260200182805460018160011615610100020316600290048015610c4d5780601f10610c2257610100808354040283529160200191610c4d565b820191906000526020600020905b815481529060010190602001808311610c3057829003601f168201915b5050505050908060010154908060020154908060030160009054906101000a900460ff16908060030160019054906101000a900473ffffffffffffffffffffffffffffffffffffffff16908060040160009054906101000a900473ffffffffffffffffffffffffffffffffffffffff16905086565b8060006003811115610cd057fe5b6002600083815260200190815260200160002060030160009054906101000a900460ff166003811115610cff57fe5b148015610d6f5750600073ffffffffffffffffffffffffffffffffffffffff166002600083815260200190815260200160002060030160019054906101000a900473ffffffffffffffffffffffffffffffffffffffff1673ffffffffffffffffffffffffffffffffffffffff1614155b610de1576040517f08c379a00000000000000000000000000000000000000000000000000000000081526004018080602001828103825260118152602001807f4974656d206e6f7420666f722073616c6500000000000000000000000000000081525060200191505060405180910390fd5b600260008381526020019081526020016000206002015480341015610e6e576040517f08c379a000000000000000000000000000000000000000000000000000000000815260040180806020018281038252600f8152602001807f4e6f74207061696420656e6f756768000000000000000000000000000000000081525060200191505060405180910390fd5b8260006002600086815260200190815260200160002090508060030160019054906101000a900473ffffffffffffffffffffffffffffffffffffffff1673ffffffffffffffffffffffffffffffffffffffff166108fc60026000888152602001908152602001600020600201549081150290604051600060405180830381858888f19350505050158015610f06573d6000803e3d6000fd5b50338160040160006101000a81548173ffffffffffffffffffffffffffffffffffffffff021916908373ffffffffffffffffffffffffffffffffffffffff16021790555060018160030160006101000a81548160ff02191690836003811115610f6b57fe5b02179055507fe64ca8c671e48636f85f3008c1dd538e36bfa74fb6f2790b56b72fcc33b879ef856040518082815260200191505060405180910390a150600060026000838152602001908152602001600020600201549050600081340390506002600084815260200190815260200160002060040160009054906101000a900473ffffffffffffffffffffffffffffffffffffffff1673ffffffffffffffffffffffffffffffffffffffff166108fc829081150290604051600060405180830381858888f19350505050158015611046573d6000803e3d6000fd5b50505050505050565b600060026000838152602001908152602001600020905060028160030160006101000a81548160ff0219169083600381111561108757fe5b02179055507feaf695929fec8154f0eafe7248c0e16855eb9ad09e623be92f669e544d53e856826040518082815260200191505060405180910390a15050565b828054600181600116156101000203166002900490600052602060002090601f016020900481019282601f1061110857805160ff1916838001178555611136565b82800160010185558215611136579182015b8281111561113557825182559160200191906001019061111a565b5b5090506111439190611147565b5090565b61116991905b8082111561116557600081600090555060010161114d565b5090565b9056fea265627a7a72315820d6f087275285a43a9c39cdceb9da9c7f4d1bf7d9b7a15a7b3239e082fe30f3cc64736f6c63430005100032",
  "source": "/*\r\n    This exercise has been updated to use Solidity version 0.5\r\n    Breaking changes from 0.4 to 0.5 can be found here: \r\n    https://solidity.readthedocs.io/en/v0.5.0/050-breaking-changes.html\r\n*/\r\n\r\npragma solidity ^0.5.0;\r\n\r\ncontract SupplyChain {\r\n\r\n  /* set owner */\r\n  address owner;\r\n\r\n  /* Add a variable called skuCount to track the most recent sku # */\r\n  uint skuCount;\r\n\r\n  /* Add a line that creates a public mapping that maps the SKU (a number) to an Item.\r\n     Call this mappings items\r\n  */\r\n  mapping(uint => Item) public items;\r\n\r\n  /* Add a line that creates an enum called State. This should have 4 states\r\n    ForSale\r\n    Sold\r\n    Shipped\r\n    Received\r\n    (declaring them in this order is important for testing)\r\n  */\r\n  enum State { ForSale, Sold, Shipped, Received }\r\n\r\n  /* Create a struct named Item.\r\n    Here, add a name, sku, price, state, seller, and buyer\r\n    We've left you to figure out what the appropriate types are,\r\n    if you need help you can ask around :)\r\n    Be sure to add \"payable\" to addresses that will be handling value transfer\r\n  */\r\n    struct Item {\r\n        string name;\r\n        uint sku;\r\n        uint price;\r\n        State state;\r\n        address payable seller;\r\n        address payable buyer;\r\n    }\r\n\r\n  /* Create 4 events with the same name as each possible State (see above)\r\n    Prefix each event with \"Log\" for clarity, so the forSale event will be called \"LogForSale\"\r\n    Each event should accept one argument, the sku */\r\n  event LogForSale(uint sku);\r\n  event LogSold(uint sku);\r\n  event LogShipped(uint sku);\r\n  event LogReceived(uint sku);\r\n\r\n\r\n/* Create a modifer that checks if the msg.sender is the owner of the contract */\r\n\r\n  modifier verifyCaller (address _address) { require (msg.sender == _address); _;}\r\n\r\n  modifier paidEnough(uint _price) { require(msg.value >= _price, \"Not paid enough\"); _;}\r\n  modifier checkValue(uint _sku) {\r\n    //refund them after pay for item (why it is before, _ checks for logic before func)\r\n    _;\r\n    uint _price = items[_sku].price;\r\n    uint amountToRefund = msg.value - _price;\r\n    items[_sku].buyer.transfer(amountToRefund);\r\n  }\r\n\r\n  /* For each of the following modifiers, use what you learned about modifiers\r\n   to give them functionality. For example, the forSale modifier should require\r\n   that the item with the given sku has the state ForSale. \r\n   Note that the uninitialized Item.State is 0, which is also the index of the ForSale value,\r\n   so checking that Item.State == ForSale is not sufficient to check that an Item is for sale.\r\n   Hint: What item properties will be non-zero when an Item has been added?\r\n   */\r\n  modifier forSale (uint _sku) { require(items[_sku].state == State.ForSale && items[_sku].seller != address(0), \"Item not for sale\"); _;}\r\n  modifier sold (uint _sku) { require(items[_sku].state == State.Sold, \"Item not sold\"); _;}\r\n  modifier shipped (uint _sku) { require(items[_sku].state == State.Shipped, \"Item not shipped\"); _;}\r\n  modifier received (uint _sku) { require(items[_sku].state == State.Received, \"Item not received\"); _;}\r\n\r\n\r\n  constructor() public {\r\n    /* Here, set the owner as the person who instantiated the contract\r\n       and set your skuCount to 0. */\r\n    owner = msg.sender;\r\n    skuCount = 0;\r\n  }\r\n\r\n  function addItem(string memory _name, uint _price) public returns(bool){\r\n    emit LogForSale(skuCount);\r\n    items[skuCount] = Item({name: _name, sku: skuCount, price: _price, state: State.ForSale, seller: msg.sender, buyer: address(0)});\r\n    skuCount = skuCount + 1;\r\n    return true;\r\n  }\r\n\r\n  /* Add a keyword so the function can be paid.     This function should transfer money to the seller,  set the buyer as the person who called this transaction, \r\n    and set the state to Sold. Be careful, this function should use 3 modifiers to check if the item is for sale,if the buyer paid enough, and check the value after the function is called to make sure the buyer is refunded any excess ether sent.  Remember to call the event associated with this function!*/\r\n  function buyItem(uint sku) payable forSale(sku) paidEnough(items[sku].price) checkValue(sku)\r\n    public \r\n  {\r\n    Item storage item = items[sku];\r\n    item.seller.transfer(items[sku].price);\r\n    item.buyer = msg.sender;\r\n    item.state = State.Sold;\r\n\r\n    emit LogSold(sku);\r\n  }\r\n\r\n  /* Add 2 modifiers to check if the item is sold already, \r\n  and that the person calling this function is the seller. \r\nChange the state of the item to shipped. Remember to call the event associated with this function!*/\r\n  function shipItem(uint sku) //verifyCaller(msg.sender) sold(sku) \r\n    public\r\n  {\r\n    Item storage item = items[sku];\r\n    // require(item.seller == msg.sender);\r\n\r\n    item.state = State.Shipped; \r\n    emit  LogShipped(sku);\r\n}\r\n\r\n//   function shipItem(address seller, uint sku) sold(sku) \r\n//     public\r\n//   {\r\n//     Item storage item = items[sku];\r\n//     require(item.seller == seller,\"Sender is not the seller\");\r\n\r\n//     item.state = State.Shipped; \r\n//     emit  LogShipped(sku);\r\n// }\r\n\r\n  /* Add 2 modifiers to check if the item is shipped already, \r\n  and that the person calling this function is the buyer. \r\n  Change the state of the item to received. Remember to call the event associated with this function!*/\r\n  function receiveItem(uint sku) shipped(sku) \r\n    public\r\n  {\r\n    Item storage item = items[sku];\r\n    require(msg.sender == item.buyer);\r\n\r\n    item.state = State.Received;\r\n    emit LogReceived(sku);\r\n  }\r\n\r\n  function receiveItem(address buyer, uint sku) shipped(sku) \r\n    public\r\n  {\r\n    Item storage item = items[sku];\r\n    require(buyer == item.buyer,\"Receiver is not the buyer\");\r\n\r\n    item.state = State.Received;\r\n    emit LogReceived(sku);\r\n  }\r\n\r\n  /* We have these functions completed so we can run tests, just ignore it :) */\r\n  function fetchItem(uint _sku) public view returns (string memory name, uint sku, uint price, uint state, address seller, address buyer) {\r\n    name = items[_sku].name;\r\n    sku = items[_sku].sku;\r\n    price = items[_sku].price;\r\n    state = uint(items[_sku].state);\r\n    seller = items[_sku].seller;\r\n    buyer = items[_sku].buyer;\r\n    return (name, sku, price, state, seller, buyer);\r\n  }\r\n\r\n}\r\n",
  "sourcePath": "C:/Users/arnou/OneDrive - Infent/Infent/Blockchain/supply-chain-exercise-arnoudcommandeur/contracts/SupplyChain.sol",
  "compiler": {
    "name": "solc",
    "version": "0.5.16+commit.9c3226ce.Emscripten.clang"
  },
  "schemaVersion": "3.2.5",
  "updatedAt": "2020-10-08T21:47:18.907Z",
  "networkType": "ethereum",
  "devdoc": {
    "methods": {}
  },
  "userdoc": {
    "methods": {}
  }
}